{
  "contractName": "SafraToken",
  "abi": [
    {
      "anonymous": false,
      "inputs": [
        {
          "indexed": true,
          "internalType": "uint256",
          "name": "tokenId",
          "type": "uint256"
        },
        {
          "indexed": true,
          "internalType": "address",
          "name": "produtor",
          "type": "address"
        },
        {
          "indexed": false,
          "internalType": "enum SafraToken.TipoSafra",
          "name": "tipo",
          "type": "uint8"
        },
        {
          "indexed": false,
          "internalType": "uint256",
          "name": "quantidade",
          "type": "uint256"
        },
        {
          "indexed": false,
          "internalType": "uint256",
          "name": "valorEstimado",
          "type": "uint256"
        }
      ],
      "name": "SafraTokenizada",
      "type": "event"
    },
    {
      "anonymous": false,
      "inputs": [
        {
          "indexed": true,
          "internalType": "uint256",
          "name": "tokenId",
          "type": "uint256"
        },
        {
          "indexed": true,
          "internalType": "address",
          "name": "de",
          "type": "address"
        },
        {
          "indexed": true,
          "internalType": "address",
          "name": "para",
          "type": "address"
        }
      ],
      "name": "SafraTransferida",
      "type": "event"
    },
    {
      "anonymous": false,
      "inputs": [
        {
          "indexed": true,
          "internalType": "uint256",
          "name": "tokenId",
          "type": "uint256"
        },
        {
          "indexed": false,
          "internalType": "enum SafraToken.StatusSafra",
          "name": "novoStatus",
          "type": "uint8"
        }
      ],
      "name": "StatusSafraAtualizado",
      "type": "event"
    },
    {
      "inputs": [
        {
          "internalType": "uint256",
          "name": "",
          "type": "uint256"
        }
      ],
      "name": "safras",
      "outputs": [
        {
          "internalType": "uint256",
          "name": "id",
          "type": "uint256"
        },
        {
          "internalType": "address",
          "name": "produtor",
          "type": "address"
        },
        {
          "internalType": "enum SafraToken.TipoSafra",
          "name": "tipo",
          "type": "uint8"
        },
        {
          "internalType": "uint256",
          "name": "quantidade",
          "type": "uint256"
        },
        {
          "internalType": "uint256",
          "name": "valorEstimado",
          "type": "uint256"
        },
        {
          "internalType": "enum SafraToken.StatusSafra",
          "name": "status",
          "type": "uint8"
        },
        {
          "internalType": "string",
          "name": "localizacao",
          "type": "string"
        },
        {
          "internalType": "uint256",
          "name": "dataPlantio",
          "type": "uint256"
        },
        {
          "internalType": "uint256",
          "name": "dataColheitaPrevista",
          "type": "uint256"
        },
        {
          "internalType": "bool",
          "name": "tokenizada",
          "type": "bool"
        },
        {
          "internalType": "address",
          "name": "proprietarioAtual",
          "type": "address"
        }
      ],
      "stateMutability": "view",
      "type": "function",
      "constant": true
    },
    {
      "inputs": [
        {
          "internalType": "address",
          "name": "",
          "type": "address"
        },
        {
          "internalType": "uint256",
          "name": "",
          "type": "uint256"
        }
      ],
      "name": "safrasDoProdutor",
      "outputs": [
        {
          "internalType": "uint256",
          "name": "",
          "type": "uint256"
        }
      ],
      "stateMutability": "view",
      "type": "function",
      "constant": true
    },
    {
      "inputs": [
        {
          "internalType": "address",
          "name": "",
          "type": "address"
        },
        {
          "internalType": "uint256",
          "name": "",
          "type": "uint256"
        }
      ],
      "name": "safrasDoProprietario",
      "outputs": [
        {
          "internalType": "uint256",
          "name": "",
          "type": "uint256"
        }
      ],
      "stateMutability": "view",
      "type": "function",
      "constant": true
    },
    {
      "inputs": [
        {
          "internalType": "uint256",
          "name": "",
          "type": "uint256"
        }
      ],
      "name": "todosSafraTokens",
      "outputs": [
        {
          "internalType": "uint256",
          "name": "",
          "type": "uint256"
        }
      ],
      "stateMutability": "view",
      "type": "function",
      "constant": true
    },
    {
      "inputs": [
        {
          "internalType": "enum SafraToken.TipoSafra",
          "name": "_tipo",
          "type": "uint8"
        },
        {
          "internalType": "uint256",
          "name": "_quantidade",
          "type": "uint256"
        },
        {
          "internalType": "uint256",
          "name": "_valorEstimado",
          "type": "uint256"
        },
        {
          "internalType": "string",
          "name": "_localizacao",
          "type": "string"
        },
        {
          "internalType": "uint256",
          "name": "_dataColheitaPrevista",
          "type": "uint256"
        }
      ],
      "name": "tokenizarSafra",
      "outputs": [
        {
          "internalType": "uint256",
          "name": "",
          "type": "uint256"
        }
      ],
      "stateMutability": "nonpayable",
      "type": "function"
    },
    {
      "inputs": [
        {
          "internalType": "uint256",
          "name": "_tokenId",
          "type": "uint256"
        },
        {
          "internalType": "address",
          "name": "_novoProprietario",
          "type": "address"
        }
      ],
      "name": "transferirPropriedade",
      "outputs": [],
      "stateMutability": "nonpayable",
      "type": "function"
    },
    {
      "inputs": [
        {
          "internalType": "uint256",
          "name": "_tokenId",
          "type": "uint256"
        },
        {
          "internalType": "enum SafraToken.StatusSafra",
          "name": "_novoStatus",
          "type": "uint8"
        }
      ],
      "name": "atualizarStatus",
      "outputs": [],
      "stateMutability": "nonpayable",
      "type": "function"
    },
    {
      "inputs": [
        {
          "internalType": "uint256",
          "name": "_tokenId",
          "type": "uint256"
        }
      ],
      "name": "obterSafra",
      "outputs": [
        {
          "internalType": "address",
          "name": "produtor",
          "type": "address"
        },
        {
          "internalType": "enum SafraToken.TipoSafra",
          "name": "tipo",
          "type": "uint8"
        },
        {
          "internalType": "uint256",
          "name": "quantidade",
          "type": "uint256"
        },
        {
          "internalType": "uint256",
          "name": "valorEstimado",
          "type": "uint256"
        },
        {
          "internalType": "enum SafraToken.StatusSafra",
          "name": "status",
          "type": "uint8"
        },
        {
          "internalType": "string",
          "name": "localizacao",
          "type": "string"
        },
        {
          "internalType": "uint256",
          "name": "dataPlantio",
          "type": "uint256"
        },
        {
          "internalType": "uint256",
          "name": "dataColheitaPrevista",
          "type": "uint256"
        },
        {
          "internalType": "address",
          "name": "proprietarioAtual",
          "type": "address"
        }
      ],
      "stateMutability": "view",
      "type": "function",
      "constant": true
    },
    {
      "inputs": [
        {
          "internalType": "address",
          "name": "_produtor",
          "type": "address"
        }
      ],
      "name": "getSafrasDoProdutor",
      "outputs": [
        {
          "internalType": "uint256[]",
          "name": "",
          "type": "uint256[]"
        }
      ],
      "stateMutability": "view",
      "type": "function",
      "constant": true
    },
    {
      "inputs": [
        {
          "internalType": "address",
          "name": "_proprietario",
          "type": "address"
        }
      ],
      "name": "safrasQuePosse",
      "outputs": [
        {
          "internalType": "uint256[]",
          "name": "",
          "type": "uint256[]"
        }
      ],
      "stateMutability": "view",
      "type": "function",
      "constant": true
    },
    {
      "inputs": [],
      "name": "todasSafras",
      "outputs": [
        {
          "internalType": "uint256[]",
          "name": "",
          "type": "uint256[]"
        }
      ],
      "stateMutability": "view",
      "type": "function",
      "constant": true
    },
    {
      "inputs": [],
      "name": "obterEstatisticas",
      "outputs": [
        {
          "internalType": "uint256",
          "name": "totalSafrasTokenizadas",
          "type": "uint256"
        },
        {
          "internalType": "uint256",
          "name": "proximoTokenId",
          "type": "uint256"
        }
      ],
      "stateMutability": "view",
      "type": "function",
      "constant": true
    }
  ],
  "bytecode": "0x6080604052600160005534801561001557600080fd5b50611d68806100256000396000f3fe608060405234801561001057600080fd5b50600436106100b45760003560e01c80639ea10b78116100715780639ea10b78146101b2578063a6124a91146101e2578063b6878d8e14610200578063b9b26f3814610230578063c8a45fcb14610260578063ebf0918514610290576100b4565b806344ab301f146100b957806361666dc5146100f157806366a404221461012b5780636dc3429c146101475780638e6d8ad8146101775780638f9c654c14610196575b600080fd5b6100d360048036038101906100ce91906110a1565b6102c0565b6040516100e89998979695949392919061126d565b60405180910390f35b61010b600480360381019061010691906110a1565b610541565b6040516101229b9a9998979695949392919061131c565b60405180910390f35b610145600480360381019061014091906113fa565b61068a565b005b610161600480360381019061015c9190611594565b6108ce565b60405161016e919061162b565b60405180910390f35b61017f610c51565b60405161018d929190611646565b60405180910390f35b6101b060048036038101906101ab9190611694565b610c65565b005b6101cc60048036038101906101c791906110a1565b610d85565b6040516101d9919061162b565b60405180910390f35b6101ea610da9565b6040516101f79190611792565b60405180910390f35b61021a600480360381019061021591906117b4565b610e01565b6040516102279190611792565b60405180910390f35b61024a600480360381019061024591906117e1565b610e98565b604051610257919061162b565b60405180910390f35b61027a600480360381019061027591906117e1565b610ec9565b604051610287919061162b565b60405180910390f35b6102aa60048036038101906102a591906117b4565b610efa565b6040516102b79190611792565b60405180910390f35b60008060008060006060600080600080600160008c815260200190815260200160002060405180610160016040529081600082015481526020016001820160009054906101000a900473ffffffffffffffffffffffffffffffffffffffff1673ffffffffffffffffffffffffffffffffffffffff1673ffffffffffffffffffffffffffffffffffffffff1681526020016001820160149054906101000a900460ff1660048111156103745761037361110f565b5b60048111156103865761038561110f565b5b815260200160028201548152602001600382015481526020016004820160009054906101000a900460ff1660038111156103c3576103c261110f565b5b60038111156103d5576103d461110f565b5b81526020016005820180546103e990611850565b80601f016020809104026020016040519081016040528092919081815260200182805461041590611850565b80156104625780601f1061043757610100808354040283529160200191610462565b820191906000526020600020905b81548152906001019060200180831161044557829003601f168201915b5050505050815260200160068201548152602001600782015481526020016008820160009054906101000a900460ff161515151581526020016008820160019054906101000a900473ffffffffffffffffffffffffffffffffffffffff1673ffffffffffffffffffffffffffffffffffffffff1673ffffffffffffffffffffffffffffffffffffffff1681525050905080602001518160400151826060015183608001518460a001518560c001518660e00151876101000151886101400151995099509950995099509950995099509950509193959799909294969850565b60016020528060005260406000206000915090508060000154908060010160009054906101000a900473ffffffffffffffffffffffffffffffffffffffff16908060010160149054906101000a900460ff16908060020154908060030154908060040160009054906101000a900460ff16908060050180546105c290611850565b80601f01602080910402602001604051908101604052809291908181526020018280546105ee90611850565b801561063b5780601f106106105761010080835404028352916020019161063b565b820191906000526020600020905b81548152906001019060200180831161061e57829003601f168201915b5050505050908060060154908060070154908060080160009054906101000a900460ff16908060080160019054906101000a900473ffffffffffffffffffffffffffffffffffffffff1690508b565b813373ffffffffffffffffffffffffffffffffffffffff166001600083815260200190815260200160002060080160019054906101000a900473ffffffffffffffffffffffffffffffffffffffff1673ffffffffffffffffffffffffffffffffffffffff161461072f576040517f08c379a0000000000000000000000000000000000000000000000000000000008152600401610726906118cd565b60405180910390fd5b60006001600085815260200190815260200160002060080160019054906101000a900473ffffffffffffffffffffffffffffffffffffffff169050826001600086815260200190815260200160002060080160016101000a81548173ffffffffffffffffffffffffffffffffffffffff021916908373ffffffffffffffffffffffffffffffffffffffff160217905550610807600360008373ffffffffffffffffffffffffffffffffffffffff1673ffffffffffffffffffffffffffffffffffffffff16815260200190815260200160002085610f91565b600360008473ffffffffffffffffffffffffffffffffffffffff1673ffffffffffffffffffffffffffffffffffffffff1681526020019081526020016000208490806001815401808255809150506001900390600052602060002001600090919091909150558273ffffffffffffffffffffffffffffffffffffffff168173ffffffffffffffffffffffffffffffffffffffff16857f81a823ac288745293484cf71f25e659d31ee374b3f18dccb033dabe57c6ceea060405160405180910390a450505050565b60008060005490506000808154809291906108e89061191c565b91905055506040518061016001604052808281526020013373ffffffffffffffffffffffffffffffffffffffff16815260200188600481111561092e5761092d61110f565b5b8152602001878152602001868152602001600060038111156109535761095261110f565b5b81526020018581526020014281526020018481526020016001151581526020013373ffffffffffffffffffffffffffffffffffffffff16815250600160008381526020019081526020016000206000820151816000015560208201518160010160006101000a81548173ffffffffffffffffffffffffffffffffffffffff021916908373ffffffffffffffffffffffffffffffffffffffff16021790555060408201518160010160146101000a81548160ff02191690836004811115610a1c57610a1b61110f565b5b0217905550606082015181600201556080820151816003015560a08201518160040160006101000a81548160ff02191690836003811115610a6057610a5f61110f565b5b021790555060c0820151816005019081610a7a9190611b10565b5060e0820151816006015561010082015181600701556101208201518160080160006101000a81548160ff0219169083151502179055506101408201518160080160016101000a81548173ffffffffffffffffffffffffffffffffffffffff021916908373ffffffffffffffffffffffffffffffffffffffff160217905550905050600260003373ffffffffffffffffffffffffffffffffffffffff1673ffffffffffffffffffffffffffffffffffffffff168152602001908152602001600020819080600181540180825580915050600190039060005260206000200160009091909190915055600360003373ffffffffffffffffffffffffffffffffffffffff1673ffffffffffffffffffffffffffffffffffffffff16815260200190815260200160002081908060018154018082558091505060019003906000526020600020016000909190919091505560048190806001815401808255809150506001900390600052602060002001600090919091909150553373ffffffffffffffffffffffffffffffffffffffff16817fac21cb3dda472a9223dd9921680303a95c3dfb8a912a522bc25a7507cbcc502c898989604051610c3c93929190611be2565b60405180910390a38091505095945050505050565b600080600480549050600054915091509091565b813373ffffffffffffffffffffffffffffffffffffffff166001600083815260200190815260200160002060010160009054906101000a900473ffffffffffffffffffffffffffffffffffffffff1673ffffffffffffffffffffffffffffffffffffffff1614610d0a576040517f08c379a0000000000000000000000000000000000000000000000000000000008152600401610d0190611c65565b60405180910390fd5b816001600085815260200190815260200160002060040160006101000a81548160ff02191690836003811115610d4357610d4261110f565b5b0217905550827fce4ca2ae85a900fc558f2eaee5ebef668b1f177815edf4668ef28ca1c59fcd0283604051610d789190611c85565b60405180910390a2505050565b60048181548110610d9557600080fd5b906000526020600020016000915090505481565b60606004805480602002602001604051908101604052809291908181526020018280548015610df757602002820191906000526020600020905b815481526020019060010190808311610de3575b5050505050905090565b6060600360008373ffffffffffffffffffffffffffffffffffffffff1673ffffffffffffffffffffffffffffffffffffffff168152602001908152602001600020805480602002602001604051908101604052809291908181526020018280548015610e8c57602002820191906000526020600020905b815481526020019060010190808311610e78575b50505050509050919050565b60026020528160005260406000208181548110610eb457600080fd5b90600052602060002001600091509150505481565b60036020528160005260406000208181548110610ee557600080fd5b90600052602060002001600091509150505481565b6060600260008373ffffffffffffffffffffffffffffffffffffffff1673ffffffffffffffffffffffffffffffffffffffff168152602001908152602001600020805480602002602001604051908101604052809291908181526020018280548015610f8557602002820191906000526020600020905b815481526020019060010190808311610f71575b50505050509050919050565b60005b82805490508110156110525781838281548110610fb457610fb3611ca0565b5b90600052602060002001540361103f578260018480549050610fd69190611ccf565b81548110610fe757610fe6611ca0565b5b906000526020600020015483828154811061100557611004611ca0565b5b90600052602060002001819055508280548061102457611023611d03565b5b60019003818190600052602060002001600090559055611052565b808061104a9061191c565b915050610f94565b505050565b6000604051905090565b600080fd5b600080fd5b6000819050919050565b61107e8161106b565b811461108957600080fd5b50565b60008135905061109b81611075565b92915050565b6000602082840312156110b7576110b6611061565b5b60006110c58482850161108c565b91505092915050565b600073ffffffffffffffffffffffffffffffffffffffff82169050919050565b60006110f9826110ce565b9050919050565b611109816110ee565b82525050565b7f4e487b7100000000000000000000000000000000000000000000000000000000600052602160045260246000fd5b6005811061114f5761114e61110f565b5b50565b60008190506111608261113e565b919050565b600061117082611152565b9050919050565b61118081611165565b82525050565b61118f8161106b565b82525050565b600481106111a6576111a561110f565b5b50565b60008190506111b782611195565b919050565b60006111c7826111a9565b9050919050565b6111d7816111bc565b82525050565b600081519050919050565b600082825260208201905092915050565b60005b838110156112175780820151818401526020810190506111fc565b60008484015250505050565b6000601f19601f8301169050919050565b600061123f826111dd565b61124981856111e8565b93506112598185602086016111f9565b61126281611223565b840191505092915050565b600061012082019050611283600083018c611100565b611290602083018b611177565b61129d604083018a611186565b6112aa6060830189611186565b6112b760808301886111ce565b81810360a08301526112c98187611234565b90506112d860c0830186611186565b6112e560e0830185611186565b6112f3610100830184611100565b9a9950505050505050505050565b60008115159050919050565b61131681611301565b82525050565b600061016082019050611332600083018e611186565b61133f602083018d611100565b61134c604083018c611177565b611359606083018b611186565b611366608083018a611186565b61137360a08301896111ce565b81810360c08301526113858188611234565b905061139460e0830187611186565b6113a2610100830186611186565b6113b061012083018561130d565b6113be610140830184611100565b9c9b505050505050505050505050565b6113d7816110ee565b81146113e257600080fd5b50565b6000813590506113f4816113ce565b92915050565b6000806040838503121561141157611410611061565b5b600061141f8582860161108c565b9250506020611430858286016113e5565b9150509250929050565b6005811061144757600080fd5b50565b6000813590506114598161143a565b92915050565b600080fd5b600080fd5b7f4e487b7100000000000000000000000000000000000000000000000000000000600052604160045260246000fd5b6114a182611223565b810181811067ffffffffffffffff821117156114c0576114bf611469565b5b80604052505050565b60006114d3611057565b90506114df8282611498565b919050565b600067ffffffffffffffff8211156114ff576114fe611469565b5b61150882611223565b9050602081019050919050565b82818337600083830152505050565b6000611537611532846114e4565b6114c9565b90508281526020810184848401111561155357611552611464565b5b61155e848285611515565b509392505050565b600082601f83011261157b5761157a61145f565b5b813561158b848260208601611524565b91505092915050565b600080600080600060a086880312156115b0576115af611061565b5b60006115be8882890161144a565b95505060206115cf8882890161108c565b94505060406115e08882890161108c565b935050606086013567ffffffffffffffff81111561160157611600611066565b5b61160d88828901611566565b925050608061161e8882890161108c565b9150509295509295909350565b60006020820190506116406000830184611186565b92915050565b600060408201905061165b6000830185611186565b6116686020830184611186565b9392505050565b6004811061167c57600080fd5b50565b60008135905061168e8161166f565b92915050565b600080604083850312156116ab576116aa611061565b5b60006116b98582860161108c565b92505060206116ca8582860161167f565b9150509250929050565b600081519050919050565b600082825260208201905092915050565b6000819050602082019050919050565b6117098161106b565b82525050565b600061171b8383611700565b60208301905092915050565b6000602082019050919050565b600061173f826116d4565b61174981856116df565b9350611754836116f0565b8060005b8381101561178557815161176c888261170f565b975061177783611727565b925050600181019050611758565b5085935050505092915050565b600060208201905081810360008301526117ac8184611734565b905092915050565b6000602082840312156117ca576117c9611061565b5b60006117d8848285016113e5565b91505092915050565b600080604083850312156117f8576117f7611061565b5b6000611806858286016113e5565b92505060206118178582860161108c565b9150509250929050565b7f4e487b7100000000000000000000000000000000000000000000000000000000600052602260045260246000fd5b6000600282049050600182168061186857607f821691505b60208210810361187b5761187a611821565b5b50919050565b7f4e616f2065206f2070726f70726965746172696f000000000000000000000000600082015250565b60006118b76014836111e8565b91506118c282611881565b602082019050919050565b600060208201905081810360008301526118e6816118aa565b9050919050565b7f4e487b7100000000000000000000000000000000000000000000000000000000600052601160045260246000fd5b60006119278261106b565b91507fffffffffffffffffffffffffffffffffffffffffffffffffffffffffffffffff8203611959576119586118ed565b5b600182019050919050565b60008190508160005260206000209050919050565b60006020601f8301049050919050565b600082821b905092915050565b6000600883026119c67fffffffffffffffffffffffffffffffffffffffffffffffffffffffffffffffff82611989565b6119d08683611989565b95508019841693508086168417925050509392505050565b6000819050919050565b6000611a0d611a08611a038461106b565b6119e8565b61106b565b9050919050565b6000819050919050565b611a27836119f2565b611a3b611a3382611a14565b848454611996565b825550505050565b600090565b611a50611a43565b611a5b818484611a1e565b505050565b5b81811015611a7f57611a74600082611a48565b600181019050611a61565b5050565b601f821115611ac457611a9581611964565b611a9e84611979565b81016020851015611aad578190505b611ac1611ab985611979565b830182611a60565b50505b505050565b600082821c905092915050565b6000611ae760001984600802611ac9565b1980831691505092915050565b6000611b008383611ad6565b9150826002028217905092915050565b611b19826111dd565b67ffffffffffffffff811115611b3257611b31611469565b5b611b3c8254611850565b611b47828285611a83565b600060209050601f831160018114611b7a5760008415611b68578287015190505b611b728582611af4565b865550611bda565b601f198416611b8886611964565b60005b82811015611bb057848901518255600182019150602085019450602081019050611b8b565b86831015611bcd5784890151611bc9601f891682611ad6565b8355505b6001600288020188555050505b505050505050565b6000606082019050611bf76000830186611177565b611c046020830185611186565b611c116040830184611186565b949350505050565b7f4e616f2065206f2070726f6475746f7200000000000000000000000000000000600082015250565b6000611c4f6010836111e8565b9150611c5a82611c19565b602082019050919050565b60006020820190508181036000830152611c7e81611c42565b9050919050565b6000602082019050611c9a60008301846111ce565b92915050565b7f4e487b7100000000000000000000000000000000000000000000000000000000600052603260045260246000fd5b6000611cda8261106b565b9150611ce58361106b565b9250828203905081811115611cfd57611cfc6118ed565b5b92915050565b7f4e487b7100000000000000000000000000000000000000000000000000000000600052603160045260246000fdfea2646970667358221220d519687122d71a2e7288ef5bc1a9921eb8d727a85182a857a7d6204209dc55e664736f6c63430008130033",
  "immutableReferences": {},
  "source": "// SPDX-License-Identifier: MIT\r\npragma solidity ^0.8.19;\r\n\r\ncontract SafraToken {\r\n    uint256 private _tokenIdCounter = 1;\r\n    \r\n    enum TipoSafra { Milho, Soja, Trigo, Cafe, Algodao }\r\n    \r\n    enum StatusSafra { Plantada, Crescendo, Colhida, Entregue }\r\n    \r\n    struct Safra {\r\n        uint256 id;\r\n        address produtor;\r\n        TipoSafra tipo;\r\n        uint256 quantidade;\r\n        uint256 valorEstimado;\r\n        StatusSafra status;\r\n        string localizacao;\r\n        uint256 dataPlantio;\r\n        uint256 dataColheitaPrevista;\r\n        bool tokenizada;\r\n        address proprietarioAtual;\r\n    }\r\n    \r\n    mapping(uint256 => Safra) public safras;\r\n    mapping(address => uint256[]) public safrasDoProdutor;\r\n    mapping(address => uint256[]) public safrasDoProprietario;\r\n    \r\n    uint256[] public todosSafraTokens;\r\n    \r\n    event SafraTokenizada(\r\n        uint256 indexed tokenId,\r\n        address indexed produtor,\r\n        TipoSafra tipo,\r\n        uint256 quantidade,\r\n        uint256 valorEstimado\r\n    );\r\n    \r\n    event SafraTransferida(\r\n        uint256 indexed tokenId,\r\n        address indexed de,\r\n        address indexed para\r\n    );\r\n    \r\n    event StatusSafraAtualizado(\r\n        uint256 indexed tokenId,\r\n        StatusSafra novoStatus\r\n    );\r\n    \r\n    modifier apenasProprietario(uint256 _tokenId) {\r\n        require(safras[_tokenId].proprietarioAtual == msg.sender, \"Nao e o proprietario\");\r\n        _;\r\n    }\r\n    \r\n    modifier apenasProdutor(uint256 _tokenId) {\r\n        require(safras[_tokenId].produtor == msg.sender, \"Nao e o produtor\");\r\n        _;\r\n    }\r\n    \r\n    function tokenizarSafra(\r\n        TipoSafra _tipo,\r\n        uint256 _quantidade,\r\n        uint256 _valorEstimado,\r\n        string memory _localizacao,\r\n        uint256 _dataColheitaPrevista\r\n    ) public returns (uint256) {\r\n        \r\n        uint256 novoTokenId = _tokenIdCounter;\r\n        _tokenIdCounter++;\r\n        \r\n        safras[novoTokenId] = Safra({\r\n            id: novoTokenId,\r\n            produtor: msg.sender,\r\n            tipo: _tipo,\r\n            quantidade: _quantidade,\r\n            valorEstimado: _valorEstimado,\r\n            status: StatusSafra.Plantada,\r\n            localizacao: _localizacao,\r\n            dataPlantio: block.timestamp,\r\n            dataColheitaPrevista: _dataColheitaPrevista,\r\n            tokenizada: true,\r\n            proprietarioAtual: msg.sender\r\n        });\r\n        \r\n        safrasDoProdutor[msg.sender].push(novoTokenId);\r\n        safrasDoProprietario[msg.sender].push(novoTokenId);\r\n        todosSafraTokens.push(novoTokenId);\r\n        \r\n        emit SafraTokenizada(novoTokenId, msg.sender, _tipo, _quantidade, _valorEstimado);\r\n        \r\n        return novoTokenId;\r\n    }\r\n    \r\n    function transferirPropriedade(uint256 _tokenId, address _novoProprietario) \r\n        public \r\n        apenasProprietario(_tokenId) \r\n    {\r\n        address proprietarioAnterior = safras[_tokenId].proprietarioAtual;\r\n        safras[_tokenId].proprietarioAtual = _novoProprietario;\r\n        \r\n        _removerDaLista(safrasDoProprietario[proprietarioAnterior], _tokenId);\r\n        safrasDoProprietario[_novoProprietario].push(_tokenId);\r\n        \r\n        emit SafraTransferida(_tokenId, proprietarioAnterior, _novoProprietario);\r\n    }\r\n    \r\n    function atualizarStatus(uint256 _tokenId, StatusSafra _novoStatus) \r\n        public \r\n        apenasProdutor(_tokenId) \r\n    {\r\n        safras[_tokenId].status = _novoStatus;\r\n        emit StatusSafraAtualizado(_tokenId, _novoStatus);\r\n    }\r\n    \r\n    function obterSafra(uint256 _tokenId) public view returns (\r\n        address produtor,\r\n        TipoSafra tipo,\r\n        uint256 quantidade,\r\n        uint256 valorEstimado,\r\n        StatusSafra status,\r\n        string memory localizacao,\r\n        uint256 dataPlantio,\r\n        uint256 dataColheitaPrevista,\r\n        address proprietarioAtual\r\n    ) {\r\n        Safra memory safra = safras[_tokenId];\r\n        return (\r\n            safra.produtor,\r\n            safra.tipo,\r\n            safra.quantidade,\r\n            safra.valorEstimado,\r\n            safra.status,\r\n            safra.localizacao,\r\n            safra.dataPlantio,\r\n            safra.dataColheitaPrevista,\r\n            safra.proprietarioAtual\r\n        );\r\n    }\r\n    \r\n    function getSafrasDoProdutor(address _produtor) public view returns (uint256[] memory) {\r\n        return safrasDoProdutor[_produtor];\r\n    }\r\n    \r\n    function safrasQuePosse(address _proprietario) public view returns (uint256[] memory) {\r\n        return safrasDoProprietario[_proprietario];\r\n    }\r\n    \r\n    function todasSafras() public view returns (uint256[] memory) {\r\n        return todosSafraTokens;\r\n    }\r\n    \r\n    function _removerDaLista(uint256[] storage _lista, uint256 _tokenId) private {\r\n        for (uint256 i = 0; i < _lista.length; i++) {\r\n            if (_lista[i] == _tokenId) {\r\n                _lista[i] = _lista[_lista.length - 1];\r\n                _lista.pop();\r\n                break;\r\n            }\r\n        }\r\n    }\r\n    \r\n    function obterEstatisticas() public view returns (\r\n        uint256 totalSafrasTokenizadas,\r\n        uint256 proximoTokenId\r\n    ) {\r\n        return (todosSafraTokens.length, _tokenIdCounter);\r\n    }\r\n}",
  "sourcePath": "C:\\Users\\mathe_qt3ehpj\\Desktop\\TCC\\tcc-credito-rural-blockchain\\contracts\\SafraToken.sol",
  "compiler": {
    "name": "solc",
    "version": "0.8.19+commit.7dd6d404.Emscripten.clang"
  },
  "schemaVersion": "3.4.16",
  "updatedAt": "2025-06-01T23:02:26.962Z",
  "networkType": "ethereum",
  "devdoc": {
    "kind": "dev",
    "methods": {},
    "version": 1
  },
  "userdoc": {
    "kind": "user",
    "methods": {},
    "version": 1
  }
}